{
  "abi": [
    {
      "inputs": [],
      "stateMutability": "nonpayable",
      "type": "constructor"
    },
    {
      "anonymous": false,
      "inputs": [
        {
          "indexed": false,
          "internalType": "address",
          "name": "account",
          "type": "address"
        }
      ],
      "name": "Cancelled",
      "type": "event"
    },
    {
      "anonymous": false,
      "inputs": [
        {
          "indexed": true,
          "internalType": "address",
          "name": "claimer",
          "type": "address"
        },
        {
          "indexed": false,
          "internalType": "uint256",
          "name": "amount",
          "type": "uint256"
        }
      ],
      "name": "Claim",
      "type": "event"
    },
    {
      "anonymous": false,
      "inputs": [
        {
          "indexed": true,
          "internalType": "address",
          "name": "previousOwner",
          "type": "address"
        },
        {
          "indexed": true,
          "internalType": "address",
          "name": "newOwner",
          "type": "address"
        }
      ],
      "name": "OwnershipTransferred",
      "type": "event"
    },
    {
      "anonymous": false,
      "inputs": [
        {
          "indexed": true,
          "internalType": "address",
          "name": "to",
          "type": "address"
        },
        {
          "indexed": false,
          "internalType": "uint256",
          "name": "amount",
          "type": "uint256"
        }
      ],
      "name": "Vest",
      "type": "event"
    },
    {
      "anonymous": false,
      "inputs": [
        {
          "indexed": false,
          "internalType": "address",
          "name": "account",
          "type": "address"
        },
        {
          "indexed": false,
          "internalType": "uint256",
          "name": "totalAmount",
          "type": "uint256"
        }
      ],
      "name": "VestDetails",
      "type": "event"
    },
    {
      "inputs": [
        {
          "internalType": "uint256",
          "name": "amount",
          "type": "uint256"
        },
        {
          "internalType": "uint256",
          "name": "currentTime",
          "type": "uint256"
        },
        {
          "internalType": "uint256",
          "name": "startTime",
          "type": "uint256"
        },
        {
          "internalType": "uint256",
          "name": "endTime",
          "type": "uint256"
        }
      ],
      "name": "calcDistribution",
      "outputs": [
        {
          "internalType": "uint256",
          "name": "",
          "type": "uint256"
        }
      ],
      "stateMutability": "pure",
      "type": "function"
    },
    {
      "inputs": [
        {
          "internalType": "uint256",
          "name": "scheduleNumber",
          "type": "uint256"
        }
      ],
      "name": "claim",
      "outputs": [],
      "stateMutability": "nonpayable",
      "type": "function"
    },
    {
      "inputs": [
        {
          "internalType": "address",
          "name": "sender",
          "type": "address"
        }
      ],
      "name": "getNumOfSchedules",
      "outputs": [
        {
          "internalType": "uint256",
          "name": "",
          "type": "uint256"
        }
      ],
      "stateMutability": "view",
      "type": "function"
    },
    {
      "inputs": [
        {
          "internalType": "uint256",
          "name": "scheduleNumber",
          "type": "uint256"
        }
      ],
      "name": "getScheduleTotalAmount",
      "outputs": [
        {
          "internalType": "uint256",
          "name": "",
          "type": "uint256"
        }
      ],
      "stateMutability": "view",
      "type": "function"
    },
    {
      "inputs": [
        {
          "internalType": "address",
          "name": "",
          "type": "address"
        }
      ],
      "name": "isApproved",
      "outputs": [
        {
          "internalType": "bool",
          "name": "",
          "type": "bool"
        }
      ],
      "stateMutability": "view",
      "type": "function"
    },
    {
      "inputs": [
        {
          "internalType": "address",
          "name": "",
          "type": "address"
        }
      ],
      "name": "locked",
      "outputs": [
        {
          "internalType": "uint256",
          "name": "",
          "type": "uint256"
        }
      ],
      "stateMutability": "view",
      "type": "function"
    },
    {
      "inputs": [
        {
          "internalType": "address[]",
          "name": "accounts",
          "type": "address[]"
        },
        {
          "internalType": "uint256[]",
          "name": "amount",
          "type": "uint256[]"
        },
        {
          "internalType": "address",
          "name": "asset",
          "type": "address"
        },
        {
          "internalType": "bool",
          "name": "isFixed",
          "type": "bool"
        },
        {
          "internalType": "uint256",
          "name": "cliffWeeks",
          "type": "uint256"
        },
        {
          "internalType": "uint256",
          "name": "vestingWeeks",
          "type": "uint256"
        },
        {
          "internalType": "uint256",
          "name": "startTime",
          "type": "uint256"
        }
      ],
      "name": "multiVest",
      "outputs": [],
      "stateMutability": "nonpayable",
      "type": "function"
    },
    {
      "inputs": [
        {
          "internalType": "address",
          "name": "",
          "type": "address"
        }
      ],
      "name": "numberOfSchedules",
      "outputs": [
        {
          "internalType": "uint256",
          "name": "",
          "type": "uint256"
        }
      ],
      "stateMutability": "view",
      "type": "function"
    },
    {
      "inputs": [],
      "name": "owner",
      "outputs": [
        {
          "internalType": "address",
          "name": "",
          "type": "address"
        }
      ],
      "stateMutability": "view",
      "type": "function"
    },
    {
      "inputs": [],
      "name": "renounceOwnership",
      "outputs": [],
      "stateMutability": "nonpayable",
      "type": "function"
    },
    {
      "inputs": [
        {
          "internalType": "address",
          "name": "account",
          "type": "address"
        },
        {
          "internalType": "uint256",
          "name": "scheduleId",
          "type": "uint256"
        }
      ],
      "name": "rug",
      "outputs": [],
      "stateMutability": "nonpayable",
      "type": "function"
    },
    {
      "inputs": [
        {
          "internalType": "address",
          "name": "",
          "type": "address"
        },
        {
          "internalType": "uint256",
          "name": "",
          "type": "uint256"
        }
      ],
      "name": "schedules",
      "outputs": [
        {
          "internalType": "uint256",
          "name": "totalAmount",
          "type": "uint256"
        },
        {
          "internalType": "uint256",
          "name": "claimedAmount",
          "type": "uint256"
        },
        {
          "internalType": "uint256",
          "name": "startTime",
          "type": "uint256"
        },
        {
          "internalType": "uint256",
          "name": "cliffTime",
          "type": "uint256"
        },
        {
          "internalType": "uint256",
          "name": "endTime",
          "type": "uint256"
        },
        {
          "internalType": "bool",
          "name": "isFixed",
          "type": "bool"
        },
        {
          "internalType": "address",
          "name": "asset",
          "type": "address"
        }
      ],
      "stateMutability": "view",
      "type": "function"
    },
    {
      "inputs": [
        {
          "internalType": "address",
          "name": "approveAddress",
          "type": "address"
        }
      ],
      "name": "setApprovedAddress",
      "outputs": [],
      "stateMutability": "nonpayable",
      "type": "function"
    },
    {
      "inputs": [
        {
          "internalType": "address",
          "name": "newOwner",
          "type": "address"
        }
      ],
      "name": "transferOwnership",
      "outputs": [],
      "stateMutability": "nonpayable",
      "type": "function"
    },
    {
      "inputs": [
        {
          "internalType": "address",
          "name": "account",
          "type": "address"
        },
        {
          "internalType": "uint256",
          "name": "amount",
          "type": "uint256"
        },
        {
          "internalType": "address",
          "name": "asset",
          "type": "address"
        },
        {
          "internalType": "bool",
          "name": "isFixed",
          "type": "bool"
        },
        {
          "internalType": "uint256",
          "name": "cliffWeeks",
          "type": "uint256"
        },
        {
          "internalType": "uint256",
          "name": "vestingWeeks",
          "type": "uint256"
        },
        {
          "internalType": "uint256",
          "name": "startTime",
          "type": "uint256"
        }
      ],
      "name": "vest",
      "outputs": [],
      "stateMutability": "nonpayable",
      "type": "function"
    },
    {
      "inputs": [
        {
          "internalType": "uint256",
          "name": "amount",
          "type": "uint256"
        },
        {
          "internalType": "address",
          "name": "asset",
          "type": "address"
        }
      ],
      "name": "withdraw",
      "outputs": [],
      "stateMutability": "nonpayable",
      "type": "function"
    }
  ],
  "bytecode": {
    "object": "0x608060405234801561001057600080fd5b5061001a3361001f565b61006f565b600080546001600160a01b038381166001600160a01b0319831681178455604051919092169283917f8be0079c531659141344cd1fd0a4f28419497f9722a3daafe3b4186f6b6457e09190a35050565b6113c08061007e6000396000f3fe608060405234801561001057600080fd5b50600436106100ff5760003560e01c80638da5cb5b11610097578063cbf9fe5f11610066578063cbf9fe5f14610333578063df681c1414610353578063f2fde38b14610373578063ffb4b1be1461038657600080fd5b80638da5cb5b146102c95780639c4e64e0146102e45780639c5bbc89146102f7578063cba9614a1461030a57600080fd5b8063379607f5116100d3578063379607f5146101dc578063673448dd146101ef578063715018a614610222578063854e96821461022a57600080fd5b8062f714ce146101045780630d53588314610119578063297611361461012c578063310934ca1461013f575b600080fd5b610117610112366004611059565b610399565b005b610117610127366004611093565b610587565b61011761013a366004611149565b6108a2565b6101c961014d3660046111fa565b33600090815260016020818152604080842094845293815291839020835160e08101855281548082529282015493810193909352600281015493830193909352600383015460608301526004830154608083015260059092015460ff8116151560a083015261010090046001600160a01b031660c09091015290565b6040519081526020015b60405180910390f35b6101176101ea3660046111fa565b610993565b6102126101fd366004611213565b60036020526000908152604090205460ff1681565b60405190151581526020016101d3565b610117610c18565b610289610238366004611235565b600160208181526000938452604080852090915291835291208054918101546002820154600383015460048401546005909401549293919290919060ff81169061010090046001600160a01b031687565b6040805197885260208801969096529486019390935260608501919091526080840152151560a08301526001600160a01b031660c082015260e0016101d3565b6000546040516001600160a01b0390911681526020016101d3565b6101c96102f236600461125f565b610c4e565b610117610305366004611213565b610c93565b6101c9610318366004611213565b6001600160a01b031660009081526002602052604090205490565b6101c9610341366004611213565b60046020526000908152604090205481565b6101c9610361366004611213565b60026020526000908152604090205481565b610117610381366004611213565b610ce1565b610117610394366004611235565b610d7c565b6000546001600160a01b031633146103cc5760405162461bcd60e51b81526004016103c390611291565b60405180910390fd5b6001600160a01b0381166000818152600460208190526040918290205491516370a0823160e01b8152309181019190915283928592916370a0823190602401602060405180830381865afa158015610428573d6000803e3d6000fd5b505050506040513d601f19601f8201168201806040525081019061044c91906112c6565b61045691906112f5565b10156104a45760405162461bcd60e51b815260206004820152601760248201527f56657374696e673a2043616e277420776974686472617700000000000000000060448201526064016103c3565b806001600160a01b031663a9059cbb6104c56000546001600160a01b031690565b6040516001600160e01b031960e084901b1681526001600160a01b039091166004820152602481018690526044016020604051808303816000875af1158015610512573d6000803e3d6000fd5b505050506040513d601f19601f82011682018060405250810190610536919061130c565b6105825760405162461bcd60e51b815260206004820152601860248201527f56657374696e673a207769746864726177206661696c6564000000000000000060448201526064016103c3565b505050565b6000546001600160a01b03163314806105af57503360009081526003602052604090205460ff165b6105cb5760405162461bcd60e51b81526004016103c390611291565b6000821180156105db5750828210155b80156105e75750600086115b6106335760405162461bcd60e51b815260206004820152601f60248201527f56657374696e673a20696e76616c69642076657374696e6720706172616d730060448201526064016103c3565b6001600160a01b0385166000908152600460205260409020546106568782611329565b6040516370a0823160e01b81523060048201526001600160a01b038816906370a0823190602401602060405180830381865afa15801561069a573d6000803e3d6000fd5b505050506040513d601f19601f820116820180604052508101906106be91906112c6565b101561070c5760405162461bcd60e51b815260206004820152601a60248201527f56657374696e673a204e6f7420656e6f75676820746f6b656e7300000000000060448201526064016103c3565b6001600160a01b038816600090815260026020908152604080832054815160e0810183528b8152928301939093528101849052606081016107508762093a80611341565b61075a9086611329565b815260200161076c8662093a80611341565b6107769086611329565b81528715156020808301919091526001600160a01b03808b166040938401528c811660009081526001808452848220878352845290849020855181559285015183820155928401516002830155606084015160038301556080840151600483015560a08401516005909201805460c09095015190911661010002610100600160a81b0319921515929092166001600160a81b03199094169390931717909155610820908290611329565b6001600160a01b038a166000908152600260205260409020556108438883611329565b6001600160a01b0380891660009081526004602090815260409182902093909355518a8152908b16917fd4a50953e9ae2104f507446be8391c79b33e1e86e626473e34bb79eb5fea1f3e910160405180910390a2505050505050505050565b6000546001600160a01b031633146108cc5760405162461bcd60e51b81526004016103c390611291565b8786811461091c5760405162461bcd60e51b815260206004820152601d60248201527f56657374696e673a204172726179206c656e677468732064696666657200000060448201526064016103c3565b60005b81811015610986576109748b8b8381811061093c5761093c611360565b90506020020160208101906109519190611213565b8a8a8481811061096357610963611360565b905060200201358989898989610587565b8061097e81611376565b91505061091f565b5050505050505050505050565b3360008181526001602090815260408083208584528252918290208054835194855291840191909152917f33ac953613b6ef91c4afa2b6adb073486ec4b038cbc7fb7be7ff98f5f261e77e910160405180910390a14281600301541115610a3c5760405162461bcd60e51b815260206004820152601a60248201527f56657374696e673a20636c696666206e6f74207265616368656400000000000060448201526064016103c3565b8054610a835760405162461bcd60e51b815260206004820152601660248201527556657374696e673a206e6f7420636c61696d61626c6560501b60448201526064016103c3565b6000610a9d82600001544284600201548560040154610c4e565b82549091508111610aae5780610ab1565b81545b90506000826001015482610ac591906112f5565b60018401839055600584015461010090046001600160a01b0316600090815260046020526040902054909150610afc9082906112f5565b6005840180546001600160a01b03610100918290048116600090815260046020819052604091829020959095559254925163a9059cbb60e01b81523394810194909452602484018590529104169063a9059cbb906044016020604051808303816000875af1158015610b72573d6000803e3d6000fd5b505050506040513d601f19601f82011682018060405250810190610b96919061130c565b610bdd5760405162461bcd60e51b815260206004820152601860248201527715995cdd1a5b99ce881d1c985b9cd9995c8819985a5b195960421b60448201526064016103c3565b60405182815233907f47cee97cb7acd717b3c0aa1435d004cd5b3c8c57d70dbceb4e4458bbd60e39d49060200160405180910390a250505050565b6000546001600160a01b03163314610c425760405162461bcd60e51b81526004016103c390611291565b610c4c6000610fed565b565b600082841015610c6057506000610c8b565b610c6a83836112f5565b610c7484866112f5565b610c7e9087611341565b610c889190611391565b90505b949350505050565b6000546001600160a01b03163314610cbd5760405162461bcd60e51b81526004016103c390611291565b6001600160a01b03166000908152600360205260409020805460ff19166001179055565b6000546001600160a01b03163314610d0b5760405162461bcd60e51b81526004016103c390611291565b6001600160a01b038116610d705760405162461bcd60e51b815260206004820152602660248201527f4f776e61626c653a206e6577206f776e657220697320746865207a65726f206160448201526564647265737360d01b60648201526084016103c3565b610d7981610fed565b50565b6000546001600160a01b03163314610da65760405162461bcd60e51b81526004016103c390611291565b6001600160a01b03821660009081526001602090815260408083208484529091529020600581015460ff1615610e1e5760405162461bcd60e51b815260206004820152601960248201527f56657374696e673a204163636f756e742069732066697865640000000000000060448201526064016103c3565b60018101548154600091610e31916112f5565b905080610e805760405162461bcd60e51b815260206004820152601e60248201527f56657374696e673a206e6f206f75747374616e64696e6720746f6b656e73000060448201526064016103c3565b6000808355600583015461010090046001600160a01b0316815260046020526040902054610eaf9082906112f5565b6005830180546001600160a01b036101009182900481166000908152600460205260409020939093559054041663a9059cbb610ef36000546001600160a01b031690565b6040516001600160e01b031960e084901b1681526001600160a01b039091166004820152602481018490526044016020604051808303816000875af1158015610f40573d6000803e3d6000fd5b505050506040513d601f19601f82011682018060405250810190610f64919061130c565b610fab5760405162461bcd60e51b815260206004820152601860248201527715995cdd1a5b99ce881d1c985b9cd9995c8819985a5b195960421b60448201526064016103c3565b6040516001600160a01b03851681527f398bd6b21ae4164ec322fb0eb8c2eb6277f36fd41903fbbed594dfe1255912819060200160405180910390a150505050565b600080546001600160a01b038381166001600160a01b0319831681178455604051919092169283917f8be0079c531659141344cd1fd0a4f28419497f9722a3daafe3b4186f6b6457e09190a35050565b80356001600160a01b038116811461105457600080fd5b919050565b6000806040838503121561106c57600080fd5b8235915061107c6020840161103d565b90509250929050565b8015158114610d7957600080fd5b600080600080600080600060e0888a0312156110ae57600080fd5b6110b78861103d565b9650602088013595506110cc6040890161103d565b945060608801356110dc81611085565b9699959850939660808101359560a0820135955060c0909101359350915050565b60008083601f84011261110f57600080fd5b50813567ffffffffffffffff81111561112757600080fd5b6020830191508360208260051b850101111561114257600080fd5b9250929050565b600080600080600080600080600060e08a8c03121561116757600080fd5b893567ffffffffffffffff8082111561117f57600080fd5b61118b8d838e016110fd565b909b50995060208c01359150808211156111a457600080fd5b506111b18c828d016110fd565b90985096506111c4905060408b0161103d565b945060608a01356111d481611085565b8094505060808a0135925060a08a0135915060c08a013590509295985092959850929598565b60006020828403121561120c57600080fd5b5035919050565b60006020828403121561122557600080fd5b61122e8261103d565b9392505050565b6000806040838503121561124857600080fd5b6112518361103d565b946020939093013593505050565b6000806000806080858703121561127557600080fd5b5050823594602084013594506040840135936060013592509050565b6020808252818101527f4f776e61626c653a2063616c6c6572206973206e6f7420746865206f776e6572604082015260600190565b6000602082840312156112d857600080fd5b5051919050565b634e487b7160e01b600052601160045260246000fd5b600082821015611307576113076112df565b500390565b60006020828403121561131e57600080fd5b815161122e81611085565b6000821982111561133c5761133c6112df565b500190565b600081600019048311821515161561135b5761135b6112df565b500290565b634e487b7160e01b600052603260045260246000fd5b600060001982141561138a5761138a6112df565b5060010190565b6000826113ae57634e487b7160e01b600052601260045260246000fd5b50049056fea164736f6c634300080b000a",
    "linkReferences": {}
  }
}