{
  "abi": [
    {
      "inputs": [
        {
          "internalType": "address",
          "name": "_rewardsToken",
          "type": "address"
        },
        {
          "internalType": "address",
          "name": "_vesting",
          "type": "address"
        }
      ],
      "stateMutability": "nonpayable",
      "type": "constructor"
    },
    {
      "anonymous": false,
      "inputs": [
        {
          "indexed": true,
          "internalType": "address",
          "name": "user",
          "type": "address"
        },
        {
          "indexed": false,
          "internalType": "uint256",
          "name": "reward",
          "type": "uint256"
        }
      ],
      "name": "RewardPaid",
      "type": "event"
    },
    {
      "inputs": [],
      "name": "getReward",
      "outputs": [],
      "stateMutability": "nonpayable",
      "type": "function"
    },
    {
      "inputs": [
        {
          "internalType": "uint256",
          "name": "amount",
          "type": "uint256"
        }
      ],
      "name": "mockStake",
      "outputs": [],
      "stateMutability": "nonpayable",
      "type": "function"
    },
    {
      "inputs": [
        {
          "internalType": "address",
          "name": "",
          "type": "address"
        }
      ],
      "name": "rewards",
      "outputs": [
        {
          "internalType": "uint256",
          "name": "",
          "type": "uint256"
        }
      ],
      "stateMutability": "view",
      "type": "function"
    },
    {
      "inputs": [],
      "name": "rewardsToken",
      "outputs": [
        {
          "internalType": "contract IERC20",
          "name": "",
          "type": "address"
        }
      ],
      "stateMutability": "view",
      "type": "function"
    },
    {
      "inputs": [
        {
          "internalType": "address",
          "name": "to",
          "type": "address"
        },
        {
          "internalType": "uint256",
          "name": "amount",
          "type": "uint256"
        }
      ],
      "name": "setReward",
      "outputs": [],
      "stateMutability": "nonpayable",
      "type": "function"
    },
    {
      "inputs": [
        {
          "internalType": "address",
          "name": "_vesting",
          "type": "address"
        }
      ],
      "name": "setVestingAddress",
      "outputs": [],
      "stateMutability": "nonpayable",
      "type": "function"
    },
    {
      "inputs": [],
      "name": "vestForAllStaked",
      "outputs": [],
      "stateMutability": "nonpayable",
      "type": "function"
    },
    {
      "inputs": [],
      "name": "vesting",
      "outputs": [
        {
          "internalType": "contract IVesting",
          "name": "",
          "type": "address"
        }
      ],
      "stateMutability": "view",
      "type": "function"
    }
  ],
  "bytecode": {
    "object": "0x608060405234801561001057600080fd5b50604051610a05380380610a0583398101604081905261002f91610081565b6001600081905580546001600160a01b039384166001600160a01b031991821617909155600380549290931691161790556100b4565b80516001600160a01b038116811461007c57600080fd5b919050565b6000806040838503121561009457600080fd5b61009d83610065565b91506100ab60208401610065565b90509250929050565b610942806100c36000396000f3fe608060405234801561001057600080fd5b50600436106100885760003560e01c8063d1af0c7d1161005b578063d1af0c7d14610108578063dd1113b21461011b578063e4d75c9d14610123578063eacccaf01461015357600080fd5b80630700037d1461008d5780633d18b912146100c057806344c63eec146100ca578063af0fe497146100f5575b600080fd5b6100ad61009b36600461079a565b60026020526000908152604090205481565b6040519081526020015b60405180910390f35b6100c8610166565b005b6003546100dd906001600160a01b031681565b6040516001600160a01b0390911681526020016100b7565b6100c86101033660046107b5565b6102b6565b6001546100dd906001600160a01b031681565b6100c8610334565b6100c861013136600461079a565b600380546001600160a01b0319166001600160a01b0392909216919091179055565b6100c86101613660046107ce565b61043e565b600260005414156101be5760405162461bcd60e51b815260206004820152601f60248201527f5265656e7472616e637947756172643a207265656e7472616e742063616c6c0060448201526064015b60405180910390fd5b60026000818155338152602091909152604090205480156102ae5733600090815260026020526040812055600354600154610206916001600160a01b03918216911683610472565b6003805460018054604051630d53588360e01b81526001600160a01b0393841694630d5358839461024694339489949216929091600490429082016107f8565b600060405180830381600087803b15801561026057600080fd5b505af1158015610274573d6000803e3d6000fd5b50506040518381523392507fe2403640ba68fed3a2f88b7557551d1993f84b99bb10ff833f0cf8db0c5e0486915060200160405180910390a25b506001600055565b600081116102c357600080fd5b336000908152600460205260409020546102dd90826104da565b336000818152600460205260408120929092556005805460018101825592527f036b6384b5eca791c62761152d0c79bb0604c104a5fb6f4eb0703f3154bb3db090910180546001600160a01b031916909117905550565b60005b60055481101561043b5760006005828154811061035657610356610839565b60009182526020808320909101546001600160a01b031680835260029091526040909120549091508015610426576001600160a01b038083166000908152600260205260408120556003546001546103b392908116911683610472565b6003805460018054604051630d53588360e01b81526001600160a01b0393841694630d535883946103f394899489949216929091600490429082016107f8565b600060405180830381600087803b15801561040d57600080fd5b505af1158015610421573d6000803e3d6000fd5b505050505b5050808061043390610865565b915050610337565b50565b600154610456906001600160a01b03163330846104ed565b6001600160a01b03909116600090815260026020526040902055565b6040516001600160a01b0383166024820152604481018290526104d590849063a9059cbb60e01b906064015b60408051601f198184030181529190526020810180516001600160e01b03166001600160e01b03199093169290921790915261052b565b505050565b60006104e68284610880565b9392505050565b6040516001600160a01b03808516602483015283166044820152606481018290526105259085906323b872dd60e01b9060840161049e565b50505050565b6000610580826040518060400160405280602081526020017f5361666545524332303a206c6f772d6c6576656c2063616c6c206661696c6564815250856001600160a01b03166105fd9092919063ffffffff16565b8051909150156104d5578080602001905181019061059e9190610898565b6104d55760405162461bcd60e51b815260206004820152602a60248201527f5361666545524332303a204552433230206f7065726174696f6e20646964206e6044820152691bdd081cdd58d8d9595960b21b60648201526084016101b5565b606061060c8484600085610614565b949350505050565b6060824710156106755760405162461bcd60e51b815260206004820152602660248201527f416464726573733a20696e73756666696369656e742062616c616e636520666f6044820152651c8818d85b1b60d21b60648201526084016101b5565b6001600160a01b0385163b6106cc5760405162461bcd60e51b815260206004820152601d60248201527f416464726573733a2063616c6c20746f206e6f6e2d636f6e747261637400000060448201526064016101b5565b600080866001600160a01b031685876040516106e891906108e6565b60006040518083038185875af1925050503d8060008114610725576040519150601f19603f3d011682016040523d82523d6000602084013e61072a565b606091505b509150915061073a828286610745565b979650505050505050565b606083156107545750816104e6565b8251156107645782518084602001fd5b8160405162461bcd60e51b81526004016101b59190610902565b80356001600160a01b038116811461079557600080fd5b919050565b6000602082840312156107ac57600080fd5b6104e68261077e565b6000602082840312156107c757600080fd5b5035919050565b600080604083850312156107e157600080fd5b6107ea8361077e565b946020939093013593505050565b6001600160a01b03978816815260208101969096529390951660408501529015156060840152608083015260a082019290925260c081019190915260e00190565b634e487b7160e01b600052603260045260246000fd5b634e487b7160e01b600052601160045260246000fd5b60006000198214156108795761087961084f565b5060010190565b600082198211156108935761089361084f565b500190565b6000602082840312156108aa57600080fd5b815180151581146104e657600080fd5b60005b838110156108d55781810151838201526020016108bd565b838111156105255750506000910152565b600082516108f88184602087016108ba565b9190910192915050565b60208152600082518060208401526109218160408501602087016108ba565b601f01601f1916919091016040019291505056fea164736f6c634300080b000a",
    "linkReferences": {}
  }
}