{
  "abi": [
    {
      "inputs": [
        {
          "internalType": "address",
          "name": "_rewardsToken",
          "type": "address"
        },
        {
          "internalType": "address",
          "name": "_vesting",
          "type": "address"
        }
      ],
      "stateMutability": "nonpayable",
      "type": "constructor"
    },
    {
      "anonymous": false,
      "inputs": [
        {
          "indexed": true,
          "internalType": "address",
          "name": "user",
          "type": "address"
        },
        {
          "indexed": false,
          "internalType": "uint256",
          "name": "reward",
          "type": "uint256"
        }
      ],
      "name": "RewardPaid",
      "type": "event"
    },
    {
      "inputs": [],
      "name": "getReward",
      "outputs": [],
      "stateMutability": "nonpayable",
      "type": "function"
    },
    {
      "inputs": [
        {
          "internalType": "address",
          "name": "",
          "type": "address"
        }
      ],
      "name": "rewards",
      "outputs": [
        {
          "internalType": "uint256",
          "name": "",
          "type": "uint256"
        }
      ],
      "stateMutability": "view",
      "type": "function"
    },
    {
      "inputs": [],
      "name": "rewardsToken",
      "outputs": [
        {
          "internalType": "contract IERC20",
          "name": "",
          "type": "address"
        }
      ],
      "stateMutability": "view",
      "type": "function"
    },
    {
      "inputs": [
        {
          "internalType": "address",
          "name": "to",
          "type": "address"
        },
        {
          "internalType": "uint256",
          "name": "amount",
          "type": "uint256"
        }
      ],
      "name": "setReward",
      "outputs": [],
      "stateMutability": "nonpayable",
      "type": "function"
    },
    {
      "inputs": [
        {
          "internalType": "address",
          "name": "_vesting",
          "type": "address"
        }
      ],
      "name": "setVestingAddress",
      "outputs": [],
      "stateMutability": "nonpayable",
      "type": "function"
    },
    {
      "inputs": [],
      "name": "vesting",
      "outputs": [
        {
          "internalType": "contract IVesting",
          "name": "",
          "type": "address"
        }
      ],
      "stateMutability": "view",
      "type": "function"
    }
  ],
  "bytecode": {
    "object": "0x608060405234801561001057600080fd5b5060405161079138038061079183398101604081905261002f91610081565b6001600081905580546001600160a01b039384166001600160a01b031991821617909155600380549290931691161790556100b4565b80516001600160a01b038116811461007c57600080fd5b919050565b6000806040838503121561009457600080fd5b61009d83610065565b91506100ab60208401610065565b90509250929050565b6106ce806100c36000396000f3fe608060405234801561001057600080fd5b50600436106100625760003560e01c80630700037d146100675780633d18b9121461009a57806344c63eec146100a4578063d1af0c7d146100cf578063e4d75c9d146100e2578063eacccaf014610112575b600080fd5b6100876100753660046105df565b60026020526000908152604090205481565b6040519081526020015b60405180910390f35b6100a2610125565b005b6003546100b7906001600160a01b031681565b6040516001600160a01b039091168152602001610091565b6001546100b7906001600160a01b031681565b6100a26100f03660046105df565b600380546001600160a01b0319166001600160a01b0392909216919091179055565b6100a26101203660046105fa565b610294565b6002600054141561017d5760405162461bcd60e51b815260206004820152601f60248201527f5265656e7472616e637947756172643a207265656e7472616e742063616c6c0060448201526064015b60405180910390fd5b600260008181553381526020919091526040902054801561028c57336000908152600260205260408120556003546001546101c5916001600160a01b039182169116836102c8565b6003805460018054604051630d53588360e01b815233600480830191909152602482018790526001600160a01b0392831660448301526064820193909352608481019490945260a48401919091524260c48401521690630d5358839060e401600060405180830381600087803b15801561023e57600080fd5b505af1158015610252573d6000803e3d6000fd5b50506040518381523392507fe2403640ba68fed3a2f88b7557551d1993f84b99bb10ff833f0cf8db0c5e0486915060200160405180910390a25b506001600055565b6001546102ac906001600160a01b0316333084610330565b6001600160a01b03909116600090815260026020526040902055565b6040516001600160a01b03831660248201526044810182905261032b90849063a9059cbb60e01b906064015b60408051601f198184030181529190526020810180516001600160e01b03166001600160e01b03199093169290921790915261036e565b505050565b6040516001600160a01b03808516602483015283166044820152606481018290526103689085906323b872dd60e01b906084016102f4565b50505050565b60006103c3826040518060400160405280602081526020017f5361666545524332303a206c6f772d6c6576656c2063616c6c206661696c6564815250856001600160a01b03166104409092919063ffffffff16565b80519091501561032b57808060200190518101906103e19190610624565b61032b5760405162461bcd60e51b815260206004820152602a60248201527f5361666545524332303a204552433230206f7065726174696f6e20646964206e6044820152691bdd081cdd58d8d9595960b21b6064820152608401610174565b606061044f8484600085610459565b90505b9392505050565b6060824710156104ba5760405162461bcd60e51b815260206004820152602660248201527f416464726573733a20696e73756666696369656e742062616c616e636520666f6044820152651c8818d85b1b60d21b6064820152608401610174565b6001600160a01b0385163b6105115760405162461bcd60e51b815260206004820152601d60248201527f416464726573733a2063616c6c20746f206e6f6e2d636f6e74726163740000006044820152606401610174565b600080866001600160a01b0316858760405161052d9190610672565b60006040518083038185875af1925050503d806000811461056a576040519150601f19603f3d011682016040523d82523d6000602084013e61056f565b606091505b509150915061057f82828661058a565b979650505050505050565b60608315610599575081610452565b8251156105a95782518084602001fd5b8160405162461bcd60e51b8152600401610174919061068e565b80356001600160a01b03811681146105da57600080fd5b919050565b6000602082840312156105f157600080fd5b610452826105c3565b6000806040838503121561060d57600080fd5b610616836105c3565b946020939093013593505050565b60006020828403121561063657600080fd5b8151801515811461045257600080fd5b60005b83811015610661578181015183820152602001610649565b838111156103685750506000910152565b60008251610684818460208701610646565b9190910192915050565b60208152600082518060208401526106ad816040850160208701610646565b601f01601f1916919091016040019291505056fea164736f6c634300080b000a",
    "linkReferences": {}
  }
}